S029000041544D65676133325F5363686564756C65725F547261666669635F4C69676874732E73726563A1
S11300000C942A000C943C000C943C000C943C008E
S11300100C943C000C943C000C943C000C94140292
S11300200C943C000C943C000C943C000C943C005C
S11300300C943C000C943C000C943C000C943C004C
S11300400C943C000C943C000C943C000C943C003C
S11300500C943C0011241FBECFE5D8E0DEBFCDBF19
S113006020E0A0E6B0E001C01D92AA36B207E1F795
S11300700E94EB010C9476020C94000082309105EE
S113008051F11CF4019749F008958330910509F466
S113009040C0049709F45BC008954115510521F04F
S11300A04130510569F008952BB381E090E002C01E
S11300B0880F991F6A95E2F7809582238BBB089578
S11300C02BB381E090E002C0880F991F6A95E2F794
S11300D0822B8BBB08954115510521F04130510508
S11300E069F0089528B381E090E002C0880F991F59
S11300F06A95E2F78095822388BB089528B381E04E
S113010090E002C0880F991F6A95E2F7822B88BBA2
S113011008954115510521F04130510569F00895C4
S113012025B381E090E002C0880F991F6A95E2F739
S11301308095822385BB089525B381E090E002C0B9
S1130140880F991F6A95E2F7822B85BB08954115A4
S1130150510521F04130510569F0089522B381E041
S113016090E002C0880F991F6A95E2F78095822378
S113017082BB089522B381E090E002C0880F991FEA
S11301806A95E2F7822B82BB08958230910561F073
S11301901CF4019739F008958330910539F00497E0
S11301A039F008956ABB089567BB089564BB089548
S11301B061BB089540E050E060E070E081E090E0D1
S11301C00E943E0040E050E061E070E081E090E099
S11301D00E943E0040E050E062E070E081E090E088
S11301E00E943E0040E050E063E070E081E090E077
S11301F00E943E0040E050E064E070E081E090E066
S11302000E943E0040E050E065E070E081E090E054
S11302100E943E0008956FEF81E090E00E94C500C7
S11302200E94DA0082E08093610041E050E060E0E7
S113023070E081E090E00E943E0041E050E063E025
S113024070E081E090E00E943E0083E080936000D3
S113025010926200089580916100823071F030F450
S11302608823D1F1813009F457C00895833009F40B
S113027073C0843009F490C008950E94DA0041E00C
S113028050E060E070E081E090E00E943E0041E0D8
S113029050E063E070E081E090E00E943E008091D5
S11302A06000815080936000813009F093C0809198
S11302B06200811109C083E0809361009CE0909307
S11302C060008093620008951092610086E080933C
S11302D060001092620008950E94DA0041E050E04C
S11302E061E070E081E090E00E943E0041E050E077
S11302F063E070E081E090E00E943E008091600045
S1130300815080936000813009F064C08093610063
S113031083E08093600008950E94DA0041E050E099
S113032062E070E081E090E00E943E0041E050E035
S113033063E070E081E090E00E943E008091600004
S1130340815080936000813009F044C082E0809342
S113035061008093600008950E94DA0041E050E05B
S113036060E070E081E090E00E943E0041E050E0F7
S113037064E070E081E090E00E943E0080916000C3
S1130380815080936000813029F584E0809361007E
S113039083E08093600008950E94DA0041E050E019
S11303A060E070E081E090E00E943E0041E050E0B7
S11303B065E070E081E090E00E943E008091600082
S11303C0815080936000813029F482E08093610041
S11303D08093600008950E940B010E94510248EE30
S11303E053E060E070E08BE291E00E94FC010E9427
S11303F00F020E945E02FDCF2091630030916400E1
S1130400232B59F4E3E6F0E09183808373836283C2
S113041055834483168280E008958FEF089589B749
S1130420806189BF789408951F920F920FB60F923E
S113043011248F939F93EF93FF9380916300909186
S11304406400892BC9F08091650090916600009743
S113045071F4E3E6F0E086818F5F86838481958181
S1130460009751F0909366008093650005C0019752
S11304709093660080936500FF91EF919F918F9117
S11304800F900FBE0F901F901895811109C0E3E6DD
S1130490F0E0118210821382128215821482168275
S11304A0089580E00E9445021DBC1CBC83E08BBD06
S11304B088EE8ABD1FBC89E08EBD0895CF93DF937B
S11304C080916900882379F0C3E6D0E0E881F9815E
S11304D009958E8181508E838C819D81892B19F49D
S11304E080E00E944502DF91CF910895F894FFCFF8
S9030000FC
