:100000000C942A000C943C000C943C000C943C0092
:100010000C943C000C943C000C943C000C943C0070
:100020000C945A020C943C000C943C000C943C0040
:100030000C943C000C943C000C943C000C943C0050
:100040000C943C000C943C000C943C000C943C0040
:100050000C943C0011241FBECFE5D8E0DEBFCDBF1D
:1000600010E0A0E6B0E001C01D92A736B107E1F7AD
:100070000E94FA010C9497020C9400009C018230BB
:10008000910561F1833091052CF48130910509F0DF
:1000900077C009C08330910509F43CC084309105D4
:1000A00009F06EC052C04115510529F0413051058B
:1000B00009F066C00AC09AB302C0220F331F6A95C6
:1000C000E2F7822F8095892307C08AB302C0440FCC
:1000D000551F6A95E2F7842B8ABB08954115510597
:1000E00029F04130510509F04BC00BC027B381E026
:1000F00090E002C0880F991F6A95E2F780958223ED
:1001000007C087B302C0440F551F6A95E2F7842BDE
:1001100087BB08954115510521F04130510581F506
:100120000BC024B381E090E002C0880F991F6A954C
:10013000E2F78095822307C084B302C0440F551FA5
:100140006A95E2F7842B84BB08954115510521F08F
:1001500041305105A9F40CC021B381E090E002C008
:10016000880F991F6A95E2F78095822381BB0895D5
:1001700081B302C0440F551F6A95E2F7842B81BBFF
:1001800008959C018230910561F1833091052CF432
:100190008130910509F077C009C08330910509F4D9
:1001A0003CC08430910509F06EC052C04115510524
:1001B00029F04130510509F066C00AC09BB302C066
:1001C000220F331F6A95E2F7822F8095892307C09B
:1001D0008BB302C0440F551F6A95E2F7842B8BBB8B
:1001E00008954115510529F04130510509F04BC0E2
:1001F0000BC028B381E090E002C0880F991F6A9578
:10020000E2F78095822307C088B302C0440F551FD0
:100210006A95E2F7842B88BB08954115510521F0BA
:100220004130510581F50BC025B381E090E002C05B
:10023000880F991F6A95E2F78095822307C085B3DE
:1002400002C0440F551F6A95E2F7842B85BB0895C1
:100250004115510521F041305105A9F40CC022B3DC
:1002600081E090E002C0880F991F6A95E2F78095BF
:10027000822382BB089582B302C0440F551F6A9542
:10028000E2F7842B82BB08958230910579F08330A8
:1002900091051CF4019731F407C08330910541F0BA
:1002A000049779F080E0089589B303C086B301C054
:1002B00083B390E002C0959587956A95E2F78170C7
:1002C000089580B390E002C0959587956A95E2F70E
:1002D000817008950F931F93CF93DF93EC018B01EF
:1002E0000E944401882329F0CE01B80140E050E08B
:1002F00004C0CE01B80141E050E00E94C100DF918E
:10030000CF911F910F9108958230910571F0833044
:1003100091051CF4019771F406C08330910539F002
:10032000049741F406C06ABB089567BB089564BB97
:10033000089561BB08958230910571F08330910575
:100340001CF4019771F406C08330910539F00497CD
:1003500041F406C06BBB089568BB089565BB089562
:1003600062BB08958230910579F0833091051CF4C9
:10037000019731F407C08330910541F0049741F0B3
:100380008FEF089589B3089586B3089583B30895D0
:1003900080B3089581E090E062E070E00E94440143
:1003A000882339F481E090E062E070E041E050E0C1
:1003B00006C081E090E062E070E040E050E00E9422
:1003C000C100089581E090E062E070E041E050E01B
:1003D0000E943E0084E090E06FEF0E94840183E081
:1003E00090E06FEF0E94840183E090E06FEF0E9445
:1003F0009B0108950E94E2010E94CA01FDCF109264
:1004000061001092600010926300109262001092DE
:10041000650010926400109266001DBC1CBC83E055
:100420008BBD88EE8ABD1FBC89E08EBD08959C01FE
:100430008091600090916100892B11F08FEF0895F9
:1004400030936100209360007093630060936200BA
:1004500050936500409364001092660080E0089518
:10046000809166008823F1F0E0916000F0916100D6
:1004700009958091660081508093660080916400A8
:1004800090916500892B71F41092610010926000C8
:100490001092630010926200109265001092640046
:1004A00010926600089589B7806189BF8FB7806810
:1004B0008FBF08951F920F920FB60F9211248F9342
:1004C0009F938091600090916100892BB9F0809199
:1004D000620090916300009761F4809166008F5FE5
:1004E000809366008091640090916500009731F0E0
:1004F00001C0019790936300809362009F918F9158
:100500000F900FBE0F901F9018950895882371F4D7
:1005100010926100109260001092630010926200CD
:100520001092650010926400109266000895F8948D
:02053000FFCFFB
:00000001FF
