:100000000C942A000C943C000C943C000C943C0092
:100010000C943C000C943C000C943C000C943C0070
:100020000C942F050C943C000C943C000C943C0068
:100030000C943C000C943C000C943C000C943C0050
:100040000C943C000C943C000C943C000C943C0040
:100050000C943C0011241FBECFE5D8E0DEBFCDBF1D
:1000600010E0A0E6B0E001C01D92A736B107E1F7AD
:100070000E94E4030C9452060C940000DF93CF938B
:10008000CDB7DEB760970FB6F894DEBF0FBECDBF19
:100090009A8389837C836B835E834D8389819A8174
:1000A00098878F838F8198858230910509F449C0A4
:1000B0008F8198858330910534F48F8198858130C4
:1000C000910571F0D0C08F8198858330910509F436
:1000D00069C08F8198858430910509F494C0C3C0AC
:1000E0008D819E819A87898789859A85009731F0CD
:1000F00089859A858130910599F0B5C0AAE3B0E071
:10010000EAE3F0E08081282F81E090E00B8002C0DC
:10011000880F991F0A94E2F7809582238C93A3C0DD
:10012000AAE3B0E0EAE3F0E08081282F81E090E0EC
:100130000B8002C0880F991F0A94E2F7822B8C93E0
:1001400092C08D819E819C878B878B859C85009733
:1001500031F08B859C858130910599F084C0A7E3AF
:10016000B0E0E7E3F0E08081282F81E090E00B80B1
:1001700002C0880F991F0A94E2F7809582238C931E
:1001800072C0A7E3B0E0E7E3F0E08081282F81E0D0
:1001900090E00B8002C0880F991F0A94E2F7822B2F
:1001A0008C9361C08D819E819E878D878D859E8574
:1001B000009731F08D859E858130910599F053C06F
:1001C000A4E3B0E0E4E3F0E08081282F81E090E058
:1001D0000B8002C0880F991F0A94E2F78095822352
:1001E0008C9341C0A4E3B0E0E4E3F0E08081282FE9
:1001F00081E090E00B8002C0880F991F0A94E2F71B
:10020000822B8C9330C08D819E81988B8F878F85B8
:100210009889009731F08F8598898130910599F000
:1002200022C0A1E3B0E0E1E3F0E08081282F81E08B
:1002300090E00B8002C0880F991F0A94E2F7809526
:1002400082238C9310C0A1E3B0E0E1E3F0E0808171
:10025000282F81E090E00B8002C0880F991F0A943C
:10026000E2F7822B8C9360960FB6F894DEBF0FBE38
:10027000CDBFCF91DF910895DF93CF93CDB7DEB798
:1002800060970FB6F894DEBF0FBECDBF9A83898307
:100290007C836B835E834D8389819A8198878F836A
:1002A0008F8198858230910509F449C08F819885A6
:1002B0008330910534F48F8198858130910571F0F8
:1002C000D0C08F8198858330910509F469C08F81F2
:1002D00098858430910509F494C0C3C08D819E81B6
:1002E0009A87898789859A85009731F089859A85CB
:1002F0008130910599F0B5C0ABE3B0E0EBE3F0E0FD
:100300008081282F81E090E00B8002C0880F991F28
:100310000A94E2F7809582238C93A3C0ABE3B0E00C
:10032000EBE3F0E08081282F81E090E00B8002C0B9
:10033000880F991F0A94E2F7822B8C9392C08D81CB
:100340009E819C878B878B859C85009731F08B8560
:100350009C858130910599F084C0A8E3B0E0E8E382
:10036000F0E08081282F81E090E00B8002C0880FB0
:10037000991F0A94E2F7809582238C9372C0A8E3B8
:10038000B0E0E8E3F0E08081282F81E090E00B808E
:1003900002C0880F991F0A94E2F7822B8C9361C0E8
:1003A0008D819E819E878D878D859E85009731F0FA
:1003B0008D859E858130910599F053C0A5E3B0E00D
:1003C000E5E3F0E08081282F81E090E00B8002C01F
:1003D000880F991F0A94E2F7809582238C9341C07D
:1003E000A5E3B0E0E5E3F0E08081282F81E090E034
:1003F0000B8002C0880F991F0A94E2F7822B8C931E
:1004000030C08D819E81988B8F878F8598890097CA
:1004100031F08F8598898130910599F022C0A2E34F
:10042000B0E0E2E3F0E08081282F81E090E00B80F3
:1004300002C0880F991F0A94E2F7809582238C935B
:1004400010C0A2E3B0E0E2E3F0E08081282F81E079
:1004500090E00B8002C0880F991F0A94E2F7822B6C
:100460008C9360960FB6F894DEBF0FBECDBFCF91D0
:10047000DF910895DF93CF93CDB7DEB727970FB6FF
:10048000F894DEBF0FBECDBF9B838A837D836C83D0
:1004900019828A819B819F838E838E819F81823086
:1004A000910541F18E819F818330910534F48E81D5
:1004B0009F818130910561F052C08E819F81833090
:1004C000910551F18E819F8184309105B9F147C02A
:1004D000E9E3F0E0808189838981882F90E00C80B6
:1004E00002C0959587950A94E2F789838981817086
:1004F000898335C0E6E3F0E0808189838981882F94
:1005000090E00C8002C0959587950A94E2F7898364
:1005100089818170898323C0E3E3F0E0808189834E
:100520008981882F90E00C8002C0959587950A9468
:10053000E2F7898389818170898311C0E0E3F0E06B
:10054000808189838981882F90E00C8002C09595F5
:1005500087950A94E2F789838981817089838981EB
:1005600027960FB6F894DEBF0FBECDBFCF91DF91B7
:100570000895DF93CF9300D000D0CDB7DEB79A8334
:1005800089837C836B8389819A812B813C81B9012A
:100590000E943A02882351F089819A812B813C8103
:1005A000B90140E050E00E943C0109C089819A8174
:1005B0002B813C81B90141E050E00E943C010F9049
:1005C0000F900F900F90CF91DF910895DF93CF930D
:1005D00000D000D00F92CDB7DEB79A8389836B83AA
:1005E00089819A819D838C838C819D818230910544
:1005F000D9F08C819D818330910534F48C819D816B
:100600008130910561F01EC08C819D818330910500
:1006100081F08C819D818430910581F013C0EAE3E3
:10062000F0E08B8180830EC0E7E3F0E08B81808374
:1006300009C0E4E3F0E08B81808304C0E1E3F0E0F3
:100640008B8180830F900F900F900F900F90CF9120
:10065000DF910895DF93CF9300D000D00F92CDB7F4
:10066000DEB79A8389836B8389819A819D838C838A
:100670008C819D8182309105D9F08C819D81833060
:10068000910534F48C819D818130910561F01EC00B
:100690008C819D818330910581F08C819D81843096
:1006A000910581F013C0EBE3F0E08B8180830EC0F5
:1006B000E8E3F0E08B81808309C0E5E3F0E08B8123
:1006C000808304C0E2E3F0E08B8180830F900F9081
:1006D0000F900F900F90CF91DF910895DF93CF93FC
:1006E00000D000D00F92CDB7DEB79A83898389817D
:1006F0009A819D838C838C819D8182309105D9F074
:100700008C819D818330910534F48C819D81813071
:10071000910561F01FC08C819D818330910581F02E
:100720008C819D818430910581F014C0E9E3F0E073
:1007300090819B8311C0E6E3F0E080818B830CC045
:10074000E3E3F0E090819B8307C0E0E3F0E0808189
:100750008B8302C09FEF9B838B810F900F900F9034
:100760000F900F90CF91DF910895DF93CF93CDB786
:10077000DEB781E090E062E070E041E050E00E948E
:100780003E00CF91DF910895DF93CF93CDB7DEB7D1
:1007900081E090E062E070E00E943A02882349F430
:1007A00081E090E062E070E041E050E00E943C01B6
:1007B00008C081E090E062E070E040E050E00E941C
:1007C0003C01CF91DF910895DF93CF93CDB7DEB792
:1007D0000E94B5030E94F90384EC93E060E070E0AE
:1007E00048EE53E00E9422040E941A050E94A804C9
:1007F000FDCFDF93CF930F92CDB7DEB7198206C03E
:1008000089810E94010689818F5F8983898188237C
:10081000B9F3EDE4F0E01082ECE4F0E01082EBE4F8
:10082000F0E083E08083EAE4F0E088EE8083EFE4A8
:10083000F0E01082EEE4F0E089E080830F90CF9149
:10084000DF910895DF93CF93CDB7DEB728970FB62A
:10085000F894DEBF0FBECDBF9B838A837D836C83FC
:100860005F834E83198216C08981282F30E0C90129
:10087000880F991F880F991F880F991F821B930B50
:10088000FC01E05AFF4F80819181009731F089810E
:100890008F5F89838981882339F38981813019F4B5
:1008A0008FEF88874BC08981282F30E0C901880FDE
:1008B000991F880F991F880F991F821B930BFC01AA
:1008C000E05AFF4F8A819B81918380838981282F01
:1008D00030E0C901880F991F880F991F880F991F51
:1008E000821B930BFC01EE59FF4F8C819D819183FC
:1008F00080838981282F30E0C901880F991F880FD4
:10090000991F880F991F821B930BFC01EC59FF4F15
:100910008E819F81918380838981282F30E0C90156
:10092000880F991F880F991F880F991F821B930B9F
:10093000FC01EA59FF4F10828981888788852896B3
:100940000FB6F894DEBF0FBECDBFCF91DF910895F3
:10095000DF93CF930F92CDB7DEB7198261C0898143
:10096000282F30E0C901880F991F880F991F880F21
:10097000991F821B930BFC01EA59FF4F808188234A
:1009800009F44BC08981282F30E0C901880F991FD5
:10099000880F991F880F991F821B930BFC01E05A47
:1009A000FF4F0190F081E02D09958981482F50E09B
:1009B0008981282F30E0C901880F991F880F991F5E
:1009C000880F991F821B930BFC01EA59FF4F80810E
:1009D000282F2150CA01880F991F880F991F880F4F
:1009E000991F841B950BFC01EA59FF4F20838981D5
:1009F000282F30E0C901880F991F880F991F880F91
:100A0000991F821B930BFC01EC59FF4F8081918150
:100A1000009719F489810E94010689818F5F89837B
:100A20008981882309F49BCF0E94FA050F90CF910A
:100A3000DF910895DF93CF93CDB7DEB7A9E5B0E09E
:100A4000E9E5F0E0808180618C93AFE5B0E0EFE50F
:100A5000F0E0808180688C93CF91DF9108951F92A0
:100A60000F920FB60F9211242F933F934F935F93E2
:100A70008F939F93EF93FF93DF93CF930F92CDB715
:100A8000DEB71982A3C08981282F30E0C901880F01
:100A9000991F880F991F880F991F821B930BFC01C8
:100AA000E05AFF4F80819181009709F48CC08981C1
:100AB000282F30E0C901880F991F880F991F880FD0
:100AC000991F821B930BFC01EE59FF4F808191818E
:100AD000009709F056C08981282F30E0C901880F9E
:100AE000991F880F991F880F991F821B930BFC0178
:100AF000EA59FF4F8081482F4F5FC901880F991F26
:100B0000880F991F880F991F821B930BFC01EA59CC
:100B1000FF4F40838981282F30E0C901880F991F3A
:100B2000880F991F880F991F821B930BFC01EC59AA
:100B3000FF4F80819181009709F445C08981482F3A
:100B400050E08981282F30E0C901880F991F880F54
:100B5000991F880F991F821B930BFC01EC59FF4FC3
:100B600020813181CA01880F991F880F991F880F32
:100B7000991F841B950BFC01EE59FF4F3183208395
:100B800022C08981282F30E0C901880F991F880F62
:100B9000991F880F991F821B930BFC01EE59FF4F81
:100BA00080819181AC0141505040C901880F991F4B
:100BB000880F991F880F991F821B930BFC01EE5918
:100BC000FF4F5183408389818F5F89838981882387
:100BD00009F459CF0F90CF91DF91FF91EF919F9141
:100BE0008F915F914F913F912F910F900FBE0F907A
:100BF0001F901895DF93CF93CDB7DEB7CF91DF91DC
:100C00000895DF93CF930F92CDB7DEB789838981A3
:100C1000882309F043C08981282F30E0C901880F5B
:100C2000991F880F991F880F991F821B930BFC0136
:100C3000E05AFF4F118210828981282F30E0C901CC
:100C4000880F991F880F991F880F991F821B930B7C
:100C5000FC01EE59FF4F118210828981282F30E06C
:100C6000C901880F991F880F991F880F991F821B30
:100C7000930BFC01EC59FF4F118210828981282FC0
:100C800030E0C901880F991F880F991F880F991F9D
:100C9000821B930BFC01EA59FF4F10820F90CF91FA
:080CA000DF910895F894FFCFE5
:00000001FF
